{
  "contractName": "Patient",
  "abi": [
    {
      "constant": true,
      "inputs": [
        {
          "name": "",
          "type": "address"
        }
      ],
      "name": "sentRequests",
      "outputs": [
        {
          "name": "",
          "type": "bool"
        }
      ],
      "payable": false,
      "stateMutability": "view",
      "type": "function",
      "signature": "0x4fc7daff"
    },
    {
      "constant": true,
      "inputs": [
        {
          "name": "",
          "type": "uint256"
        }
      ],
      "name": "requests",
      "outputs": [
        {
          "name": "",
          "type": "address"
        }
      ],
      "payable": false,
      "stateMutability": "view",
      "type": "function",
      "signature": "0x81d12c58"
    },
    {
      "constant": true,
      "inputs": [
        {
          "name": "",
          "type": "uint256"
        }
      ],
      "name": "addedProviders",
      "outputs": [
        {
          "name": "",
          "type": "address"
        }
      ],
      "payable": false,
      "stateMutability": "view",
      "type": "function",
      "signature": "0xa4c338de"
    },
    {
      "inputs": [
        {
          "name": "_owner",
          "type": "address"
        }
      ],
      "payable": false,
      "stateMutability": "nonpayable",
      "type": "constructor",
      "signature": "constructor"
    },
    {
      "constant": false,
      "inputs": [
        {
          "name": "_providerAddress",
          "type": "address"
        }
      ],
      "name": "_addAddedProviders",
      "outputs": [],
      "payable": false,
      "stateMutability": "nonpayable",
      "type": "function",
      "signature": "0x7ed93b88"
    },
    {
      "constant": false,
      "inputs": [
        {
          "name": "_providerAddress",
          "type": "address"
        }
      ],
      "name": "_providerRequests",
      "outputs": [],
      "payable": false,
      "stateMutability": "nonpayable",
      "type": "function",
      "signature": "0x2c694c4b"
    },
    {
      "constant": true,
      "inputs": [],
      "name": "seeRequests",
      "outputs": [
        {
          "name": "",
          "type": "address[]"
        }
      ],
      "payable": false,
      "stateMutability": "view",
      "type": "function",
      "signature": "0x2532e6ac"
    },
    {
      "constant": false,
      "inputs": [
        {
          "name": "_providerAddress",
          "type": "address"
        }
      ],
      "name": "addProvider",
      "outputs": [],
      "payable": false,
      "stateMutability": "nonpayable",
      "type": "function",
      "signature": "0x46e2577a"
    },
    {
      "constant": true,
      "inputs": [],
      "name": "requestsForApproval",
      "outputs": [
        {
          "name": "",
          "type": "address[]"
        }
      ],
      "payable": false,
      "stateMutability": "view",
      "type": "function",
      "signature": "0x66a0da7b"
    },
    {
      "constant": false,
      "inputs": [
        {
          "name": "_index",
          "type": "uint256"
        }
      ],
      "name": "acceptProvider",
      "outputs": [],
      "payable": false,
      "stateMutability": "nonpayable",
      "type": "function",
      "signature": "0x83561a94"
    },
    {
      "constant": false,
      "inputs": [
        {
          "name": "_index",
          "type": "uint256"
        }
      ],
      "name": "deleteRequest",
      "outputs": [],
      "payable": false,
      "stateMutability": "nonpayable",
      "type": "function",
      "signature": "0xe9a21bcd"
    },
    {
      "constant": false,
      "inputs": [
        {
          "name": "_hash",
          "type": "bytes"
        }
      ],
      "name": "uploadFiles",
      "outputs": [],
      "payable": false,
      "stateMutability": "nonpayable",
      "type": "function",
      "signature": "0x483cbf25"
    },
    {
      "constant": true,
      "inputs": [
        {
          "name": "_hash",
          "type": "bytes"
        }
      ],
      "name": "retrieveFile",
      "outputs": [
        {
          "name": "",
          "type": "bytes"
        }
      ],
      "payable": false,
      "stateMutability": "view",
      "type": "function",
      "signature": "0x8ad39761"
    }
  ],
  "bytecode": "0x608060405234801561001057600080fd5b50604051602080610d0f8339810180604052602081101561003057600080fd5b505160038054600160a060020a031916600160a060020a03909216919091179055610caf806100606000396000f3fe6080604052600436106100b95763ffffffff7c01000000000000000000000000000000000000000000000000000000006000350416632532e6ac81146100be5780632c694c4b1461012357806346e2577a14610158578063483cbf251461018b5780634fc7daff1461023e57806366a0da7b146102855780637ed93b881461029a57806381d12c58146102cd57806383561a94146103135780638ad397611461033d578063a4c338de14610465578063e9a21bcd1461048f575b600080fd5b3480156100ca57600080fd5b506100d36104b9565b60408051602080825283518183015283519192839290830191858101910280838360005b8381101561010f5781810151838201526020016100f7565b505050509050019250505060405180910390f35b34801561012f57600080fd5b506101566004803603602081101561014657600080fd5b5035600160a060020a031661051c565b005b34801561016457600080fd5b506101566004803603602081101561017b57600080fd5b5035600160a060020a031661057b565b34801561019757600080fd5b50610156600480360360208110156101ae57600080fd5b8101906020810181356401000000008111156101c957600080fd5b8201836020820111156101db57600080fd5b803590602001918460018302840111640100000000831117156101fd57600080fd5b91908080601f016020809104026020016040519081016040528093929190818152602001838380828437600092019190915250929550610732945050505050565b34801561024a57600080fd5b506102716004803603602081101561026157600080fd5b5035600160a060020a03166107cb565b604080519115158252519081900360200190f35b34801561029157600080fd5b506100d36107e0565b3480156102a657600080fd5b50610156600480360360208110156102bd57600080fd5b5035600160a060020a0316610891565b3480156102d957600080fd5b506102f7600480360360208110156102f057600080fd5b50356108fe565b60408051600160a060020a039092168252519081900360200190f35b34801561031f57600080fd5b506101566004803603602081101561033657600080fd5b5035610926565b34801561034957600080fd5b506103f06004803603602081101561036057600080fd5b81019060208101813564010000000081111561037b57600080fd5b82018360208201111561038d57600080fd5b803590602001918460018302840111640100000000831117156103af57600080fd5b91908080601f016020809104026020016040519081016040528093929190818152602001838380828437600092019190915250929550610aa1945050505050565b6040805160208082528351818301528351919283929083019185019080838360005b8381101561042a578181015183820152602001610412565b50505050905090810190601f1680156104575780820380516001836020036101000a031916815260200191505b509250505060405180910390f35b34801561047157600080fd5b506102f76004803603602081101561048857600080fd5b5035610af8565b34801561049b57600080fd5b50610156600480360360208110156104b257600080fd5b5035610b06565b6060600280548060200260200160405190810160405280929190818152602001828054801561051157602002820191906000526020600020905b8154600160a060020a031681526001909101906020018083116104f3575b505050505090505b90565b600280546001810182556000919091527f405787fa12a823e0f2b7631cc41b3ba8828b3321ca811111fa75cd3aa3bb5ace01805473ffffffffffffffffffffffffffffffffffffffff1916600160a060020a0392909216919091179055565b600354600160a060020a031633146105cb576040805160e560020a62461bcd02815260206004820152600e6024820152600080516020610c64833981519152604482015290519081900360640190fd5b600160a060020a038116600090815260016020819052604090912054829160ff90911615151415610646576040805160e560020a62461bcd02815260206004820152601160248201527f5065726d697373696f6e2044656e696564000000000000000000000000000000604482015290519081900360640190fd5b604080517f52ae55900000000000000000000000000000000000000000000000000000000081523060048201529051600160a060020a038316916352ae559091602480830192600092919082900301818387803b1580156106a657600080fd5b505af11580156106ba573d6000803e3d6000fd5b505050600160a060020a0390921660008181526001602081905260408220805460ff1916821790556002805491820181559091527f405787fa12a823e0f2b7631cc41b3ba8828b3321ca811111fa75cd3aa3bb5ace01805473ffffffffffffffffffffffffffffffffffffffff191690911790555050565b600354600160a060020a03163314610782576040805160e560020a62461bcd02815260206004820152600e6024820152600080516020610c64833981519152604482015290519081900360640190fd5b600480546001810180835560009290925282516107c6917f8a35acfbc15ff81a39ae7d344fd709f28e8600b4aa8c65c6b64bfe7fe36bd19b01906020850190610baf565b505050565b60016020526000908152604090205460ff1681565b600354606090600160a060020a03163314610833576040805160e560020a62461bcd02815260206004820152600e6024820152600080516020610c64833981519152604482015290519081900360640190fd5b600280548060200260200160405190810160405280929190818152602001828054801561051157602002820191906000526020600020908154600160a060020a031681526001909101906020018083116104f3575050505050905090565b600160a060020a031660008181526001602081905260408220805460ff19169055815490810182559080527f290decd9548b62a8d60345a988386fc84ba6bc95484008f6362f93160ef3e56301805473ffffffffffffffffffffffffffffffffffffffff19169091179055565b600280548290811061090c57fe5b600091825260209091200154600160a060020a0316905081565b600354600160a060020a03163314610976576040805160e560020a62461bcd02815260206004820152600e6024820152600080516020610c64833981519152604482015290519081900360640190fd5b600060028281548110151561098757fe5b600091825260208220015460028054600160a060020a03909216935090849081106109ae57fe5b600091825260208083209091015483546001810185559383529120909101805473ffffffffffffffffffffffffffffffffffffffff1916600160a060020a039092169190911790556002805483908110610a0457fe5b60009182526020822001805473ffffffffffffffffffffffffffffffffffffffff19169055604080517f65d33a140000000000000000000000000000000000000000000000000000000081523060048201529051600160a060020a038416926365d33a14926024808201939182900301818387803b158015610a8557600080fd5b505af1158015610a99573d6000803e3d6000fd5b505050505050565b600354606090600160a060020a03163314610af4576040805160e560020a62461bcd02815260206004820152600e6024820152600080516020610c64833981519152604482015290519081900360640190fd5b5090565b600080548290811061090c57fe5b600254811115610b1557610bac565b805b600254811015610b96576002805460018301908110610b3257fe5b60009182526020909120015460028054600160a060020a039092169183908110610b5857fe5b6000918252602090912001805473ffffffffffffffffffffffffffffffffffffffff1916600160a060020a0392909216919091179055600101610b17565b506002805490610baa906000198301610c29565b505b50565b828054600181600116156101000203166002900490600052602060002090601f016020900481019282601f10610bf057805160ff1916838001178555610c1d565b82800160010185558215610c1d579182015b82811115610c1d578251825591602001919060010190610c02565b50610af4929150610c49565b8154818355818111156107c6576000838152602090206107c69181019083015b61051991905b80821115610af45760008155600101610c4f56fe4e6f7420746865206f776e657221000000000000000000000000000000000000a165627a7a723058206ada6adc28745ffbdfa9c07b78e50378b041761bebd02bbb45fa79961274f6540029",
  "source": "//pragma solidity ^0.4.22;\npragma solidity ^0.5.0;\n\ncontract ElectronicHealthSystem{\n\n  address owner;\n  address[] providers;\n  address[] patients;\n\n  mapping (address => address) public profileAddress;\n  mapping (address => bool) profileExists;\n\n  modifier ownerOnly {\n    require(msg.sender == owner, 'Not the owner');\n    _;\n  }\n\n  constructor() public {\n    owner = msg.sender;\n  }\n\n  function registerAsPatient() public returns (address){\n    require(!profileExists[msg.sender],'Patient already exists');\n    address newPatient = address(new Patient(msg.sender));\n    profileAddress[msg.sender] = newPatient;\n    profileExists[msg.sender] = true;\n    return profileAddress[msg.sender];\n  }\n\n  function registerAsProvider() public returns (address) {\n    require(!profileExists[msg.sender], 'Provider already exists');\n    address newProvider = address(new Provider(msg.sender));\n    providers.push(newProvider);\n    profileAddress[msg.sender] = newProvider;\n    profileExists[msg.sender] = true;\n    return profileAddress[msg.sender];\n  }\n}\n\ncontract Provider {\n\n    // mapping (address => bool) patients;\n\n    // address[] public patientAddresses;\n    address[] public addedPatients;\n    address[] requests;\n\n    mapping (address=>bool) public sentRequests;\n\n    // uint public numberOfPatients;\n\n    address owner;\n\n    modifier ownerOnly{\n      require(msg.sender == owner,'Permission Denied');\n      _;\n    }\n\n    constructor(address _owner) public {\n      owner = _owner;\n    }\n\n    function _addAddedPatients(address _patientAddress) public ownerOnly {\n      Patient patient = Patient(_patientAddress);\n      require(sentRequests[_patientAddress]!=true, 'Permission Denied');\n      patient._providerRequests(address(this));\n      sentRequests[_patientAddress] = true;\n    }\n\n    function _patientRequests(address _patientAddress) public {\n      requests.push(_patientAddress);\n    }\n\n    function requestsForApproval() public ownerOnly view returns (address[] memory) {\n      return requests;\n    }\n\n    function acceptPatient(uint _index) public ownerOnly {\n      Patient patient = Patient(requests[_index]);\n      addedPatients.push(requests[_index]);\n      delete requests[_index];\n      patient._addAddedProviders(address(this));\n    }\n\n    // function pendingRequests() public ownerOnly view returns (address[] memory) {\n    //   return requests;\n    // }\n\n    // function deleteRequest(uint _index) public ownerOnly {\n    //     if (_index > requests.length) return;\n    //     for(uint i = _index ; i < requests.length; i++){\n    //         requests[i] = requests[i+1];\n    //     }\n    //     requests.length--;\n    // }\n\n    // function patientList() public ownerOnly view returns (address[] memory) {\n    //   return patientAddresses;\n    // }\n\n    // function _clearRequest(address _patientAddress) public {\n    //   sentRequests[_patientAddress] = false;\n    //   patientAddresses.push(_patientAddress);\n    //   numberOfPatients++;\n    // }\n\n    // //Allow providers to send a request\n    // function _patientRequest(address _patientAddress) public {\n    //   requests.push(_patientAddress);\n    // }\n\n    // function uploadFiles(bytes memory _ipfsHash, address _patientAddress) public ownerOnly {\n    //     Patient patient = Patient(_patientAddress);\n    //     patient.uploadFiles(_ipfsHash);\n    // }\n\n    // function getFiles(uint _index, address _patientAddress) public ownerOnly view returns (bytes memory) {\n    //     Patient patient = Patient(_patientAddress);\n    //     bytes memory file = patient.getFiles(_index);\n    //     return file;\n    // }\n}\n\ncontract Patient{\n\n    // struct Identity {\n    //     string firstName;\n    //     string lastName;\n    //     string dateOfBirth;\n    //     string addressResidence;\n    // }\n\n    // Identity identity;\n\n    // address public owner;\n\n    address[] public addedProviders;\n\n    // mapping (address => bool) public addedProvidersAccess;\n\n    mapping (address => bool) public sentRequests;\n\n    address[] public requests;\n\n    address owner;\n\n    bytes[] patientFiles;\n\n    modifier ownerOnly {\n      require(msg.sender == owner, 'Not the owner!');\n      _;\n    }\n\n    // uint public numberOfMedicalProviders;\n\n    // modifier ownerOnly(){\n    //     require(msg.sender == owner,'Access Denied');\n    //     _;\n    // }\n\n    // modifier restricted(){\n    //     require(msg.sender == owner || addedProvidersAccess[msg.sender],'Not enough Persmission');\n    //     _;\n    // }\n\n    constructor(address _owner) public {\n        owner = _owner;\n    }\n\n    function _addAddedProviders(address _providerAddress) public {\n      sentRequests[_providerAddress] = false;\n      addedProviders.push(_providerAddress);\n    }\n\n    // function _clearRequest(address _providerAddress) public {\n    //   sentRequests[_providerAddress] = false;\n    //   addedProviders.push(_providerAddress);\n    //   addedProvidersAccess[_providerAddress] = true;\n\n    // }\n\n    function _providerRequests(address _providerAddress) public {\n      requests.push(_providerAddress);\n    }\n\n    // function getRequests() public view returns(address[] memory){\n    //   return requests;\n    // }\n    function seeRequests() public view returns (address[] memory ) {\n      return requests;\n    }\n\n    function addProvider(address _providerAddress)  public ownerOnly{\n      // require(!addedProvidersAccess[_providerAddress],'Permission Denied');\n      Provider provider = Provider(_providerAddress);\n      require(sentRequests[_providerAddress]!=true, 'Permission Denied');\n      provider._patientRequests(address(this));\n      sentRequests[_providerAddress] = true;\n      // numberOfMedicalProviders++;\n      // addedProvidersAccess[_providerAddress] = true;\n      requests.push(_providerAddress);\n    }\n\n    function requestsForApproval() public ownerOnly view returns (address[] memory) {\n      return requests;\n    }\n\n    function acceptProvider(uint _index) public ownerOnly {\n      Provider provider = Provider(requests[_index]);\n      addedProviders.push(requests[_index]);\n      // numberOfMedicalProviders++;\n      // addedProvidersAccess[requests[_index]] = true;\n      // provider._clearRequest(address(this));\n      // delete requests[_index];\n      delete requests[_index];\n      provider._addAddedPatients(address(this));\n    }\n\n    function deleteRequest(uint _index) public {\n        if (_index > requests.length) return;\n        for(uint i = _index ; i < requests.length; i++){\n            requests[i] = requests[i+1];\n        }\n        requests.length--;\n    }\n\n    function uploadFiles(bytes memory _hash) public ownerOnly {\n        patientFiles.push(_hash);\n    }\n\n    function retrieveFile(bytes memory _hash) public view ownerOnly returns (bytes memory) {\n        return _hash;\n    }\n\n    // function returnIdentity() public view returns (string memory) {\n    //     return identity.firstName;\n    // }\n}\n",
  "sourcePath": "/home/castor/Desktop/hello/hello/contracts/Medical.sol",
  "compiler": {
    "name": "solc",
    "version": "0.5.0+commit.1d4f565a.Emscripten.clang"
  },
  "schemaVersion": "3.0.1",
  "updatedAt": "2019-07-29T03:21:50.584Z",
  "devdoc": {
    "methods": {}
  },
  "userdoc": {
    "methods": {}
  }
}