{
  "contractName": "Patient",
  "abi": [
    {
      "constant": true,
      "inputs": [
        {
          "name": "",
          "type": "address"
        }
      ],
      "name": "addedProvidersAccess",
      "outputs": [
        {
          "name": "",
          "type": "bool"
        }
      ],
      "payable": false,
      "stateMutability": "view",
      "type": "function"
    },
    {
      "constant": true,
      "inputs": [],
      "name": "numberOfMedicalProviders",
      "outputs": [
        {
          "name": "",
          "type": "uint256"
        }
      ],
      "payable": false,
      "stateMutability": "view",
      "type": "function"
    },
    {
      "constant": true,
      "inputs": [
        {
          "name": "",
          "type": "address"
        }
      ],
      "name": "sentRequests",
      "outputs": [
        {
          "name": "",
          "type": "bool"
        }
      ],
      "payable": false,
      "stateMutability": "view",
      "type": "function"
    },
    {
      "constant": true,
      "inputs": [
        {
          "name": "",
          "type": "uint256"
        }
      ],
      "name": "requests",
      "outputs": [
        {
          "name": "",
          "type": "address"
        }
      ],
      "payable": false,
      "stateMutability": "view",
      "type": "function"
    },
    {
      "constant": true,
      "inputs": [],
      "name": "owner",
      "outputs": [
        {
          "name": "",
          "type": "address"
        }
      ],
      "payable": false,
      "stateMutability": "view",
      "type": "function"
    },
    {
      "constant": true,
      "inputs": [
        {
          "name": "",
          "type": "uint256"
        }
      ],
      "name": "addedProviders",
      "outputs": [
        {
          "name": "",
          "type": "address"
        }
      ],
      "payable": false,
      "stateMutability": "view",
      "type": "function"
    },
    {
      "inputs": [
        {
          "name": "_fName",
          "type": "string"
        },
        {
          "name": "_lName",
          "type": "string"
        },
        {
          "name": "_dateOfBirth",
          "type": "string"
        },
        {
          "name": "_addressResidence",
          "type": "string"
        },
        {
          "name": "_owner",
          "type": "address"
        }
      ],
      "payable": false,
      "stateMutability": "nonpayable",
      "type": "constructor"
    },
    {
      "constant": false,
      "inputs": [
        {
          "name": "_providerAddress",
          "type": "address"
        }
      ],
      "name": "_clearRequest",
      "outputs": [],
      "payable": false,
      "stateMutability": "nonpayable",
      "type": "function"
    },
    {
      "constant": false,
      "inputs": [
        {
          "name": "_providerAddress",
          "type": "address"
        }
      ],
      "name": "_providerRequests",
      "outputs": [],
      "payable": false,
      "stateMutability": "nonpayable",
      "type": "function"
    },
    {
      "constant": true,
      "inputs": [],
      "name": "getRequests",
      "outputs": [
        {
          "name": "",
          "type": "address[]"
        }
      ],
      "payable": false,
      "stateMutability": "view",
      "type": "function"
    },
    {
      "constant": false,
      "inputs": [
        {
          "name": "_providerAddress",
          "type": "address"
        }
      ],
      "name": "addProvider",
      "outputs": [],
      "payable": false,
      "stateMutability": "nonpayable",
      "type": "function"
    },
    {
      "constant": false,
      "inputs": [
        {
          "name": "_index",
          "type": "uint256"
        }
      ],
      "name": "acceptProvider",
      "outputs": [],
      "payable": false,
      "stateMutability": "nonpayable",
      "type": "function"
    },
    {
      "constant": false,
      "inputs": [
        {
          "name": "_index",
          "type": "uint256"
        }
      ],
      "name": "deleteRequest",
      "outputs": [],
      "payable": false,
      "stateMutability": "nonpayable",
      "type": "function"
    },
    {
      "constant": false,
      "inputs": [
        {
          "name": "ipfsHash",
          "type": "bytes"
        }
      ],
      "name": "uploadFiles",
      "outputs": [],
      "payable": false,
      "stateMutability": "nonpayable",
      "type": "function"
    },
    {
      "constant": true,
      "inputs": [
        {
          "name": "_index",
          "type": "uint256"
        }
      ],
      "name": "getFiles",
      "outputs": [
        {
          "name": "",
          "type": "bytes"
        }
      ],
      "payable": false,
      "stateMutability": "view",
      "type": "function"
    },
    {
      "constant": true,
      "inputs": [],
      "name": "returnIdentity",
      "outputs": [
        {
          "name": "",
          "type": "string"
        },
        {
          "name": "",
          "type": "string"
        },
        {
          "name": "",
          "type": "string"
        },
        {
          "name": "",
          "type": "string"
        }
      ],
      "payable": false,
      "stateMutability": "view",
      "type": "function"
    }
  ],
  "bytecode": "0x60806040523480156200001157600080fd5b5060405162001e8938038062001e89833981018060405260a08110156200003757600080fd5b8101908080516401000000008111156200005057600080fd5b828101905060208101848111156200006757600080fd5b81518560018202830111640100000000821117156200008557600080fd5b50509291906020018051640100000000811115620000a257600080fd5b82810190506020810184811115620000b957600080fd5b8151856001820283011164010000000082111715620000d757600080fd5b50509291906020018051640100000000811115620000f457600080fd5b828101905060208101848111156200010b57600080fd5b81518560018202830111640100000000821117156200012957600080fd5b505092919060200180516401000000008111156200014657600080fd5b828101905060208101848111156200015d57600080fd5b81518560018202830111640100000000821117156200017b57600080fd5b50509291906020018051906020019092919050505084600080019080519060200190620001aa92919062000253565b508360006001019080519060200190620001c692919062000253565b508260006002019080519060200190620001e292919062000253565b508160006003019080519060200190620001fe92919062000253565b5080600460006101000a81548173ffffffffffffffffffffffffffffffffffffffff021916908373ffffffffffffffffffffffffffffffffffffffff1602179055506000600a81905550505050505062000302565b828054600181600116156101000203166002900490600052602060002090601f016020900481019282601f106200029657805160ff1916838001178555620002c7565b82800160010185558215620002c7579182015b82811115620002c6578251825591602001919060010190620002a9565b5b509050620002d69190620002da565b5090565b620002ff91905b80821115620002fb576000816000905550600101620002e1565b5090565b90565b611b7780620003126000396000f3fe6080604052600436106100db576000357c0100000000000000000000000000000000000000000000000000000000900463ffffffff16806312506f4d146100e05780632c694c4b1461019457806345def20a146101e557806346e2577a1461024e578063483cbf251461029f57806348e77e50146103675780634fc7daff1461039257806381d12c58146103fb57806381f2f6d51461047657806383561a941461064a5780638813ce12146106855780638da5cb5b146106f1578063a4c338de14610748578063e9a21bcd146107c3578063f25efa11146107fe575b600080fd5b3480156100ec57600080fd5b506101196004803603602081101561010357600080fd5b810190808035906020019092919050505061084f565b6040518080602001828103825283818151815260200191508051906020019080838360005b8381101561015957808201518184015260208101905061013e565b50505050905090810190601f1680156101865780820380516001836020036101000a031916815260200191505b509250505060405180910390f35b3480156101a057600080fd5b506101e3600480360360208110156101b757600080fd5b81019080803573ffffffffffffffffffffffffffffffffffffffff169060200190929190505050610a23565b005b3480156101f157600080fd5b506102346004803603602081101561020857600080fd5b81019080803573ffffffffffffffffffffffffffffffffffffffff169060200190929190505050610a8c565b604051808215151515815260200191505060405180910390f35b34801561025a57600080fd5b5061029d6004803603602081101561027157600080fd5b81019080803573ffffffffffffffffffffffffffffffffffffffff169060200190929190505050610aac565b005b3480156102ab57600080fd5b50610365600480360360208110156102c257600080fd5b81019080803590602001906401000000008111156102df57600080fd5b8201836020820111156102f157600080fd5b8035906020019184600183028401116401000000008311171561031357600080fd5b91908080601f016020809104026020016040519081016040528093929190818152602001838380828437600081840152601f19601f820116905080830192505050505050509192919290505050610db1565b005b34801561037357600080fd5b5061037c610f0c565b6040518082815260200191505060405180910390f35b34801561039e57600080fd5b506103e1600480360360208110156103b557600080fd5b81019080803573ffffffffffffffffffffffffffffffffffffffff169060200190929190505050610f12565b604051808215151515815260200191505060405180910390f35b34801561040757600080fd5b506104346004803603602081101561041e57600080fd5b8101908080359060200190929190505050610f32565b604051808273ffffffffffffffffffffffffffffffffffffffff1673ffffffffffffffffffffffffffffffffffffffff16815260200191505060405180910390f35b34801561048257600080fd5b5061048b610f70565b6040518080602001806020018060200180602001858103855289818151815260200191508051906020019080838360005b838110156104d75780820151818401526020810190506104bc565b50505050905090810190601f1680156105045780820380516001836020036101000a031916815260200191505b50858103845288818151815260200191508051906020019080838360005b8381101561053d578082015181840152602081019050610522565b50505050905090810190601f16801561056a5780820380516001836020036101000a031916815260200191505b50858103835287818151815260200191508051906020019080838360005b838110156105a3578082015181840152602081019050610588565b50505050905090810190601f1680156105d05780820380516001836020036101000a031916815260200191505b50858103825286818151815260200191508051906020019080838360005b838110156106095780820151818401526020810190506105ee565b50505050905090810190601f1680156106365780820380516001836020036101000a031916815260200191505b509850505050505050505060405180910390f35b34801561065657600080fd5b506106836004803603602081101561066d57600080fd5b81019080803590602001909291905050506112cc565b005b34801561069157600080fd5b5061069a611604565b6040518080602001828103825283818151815260200191508051906020019060200280838360005b838110156106dd5780820151818401526020810190506106c2565b505050509050019250505060405180910390f35b3480156106fd57600080fd5b50610706611757565b604051808273ffffffffffffffffffffffffffffffffffffffff1673ffffffffffffffffffffffffffffffffffffffff16815260200191505060405180910390f35b34801561075457600080fd5b506107816004803603602081101561076b57600080fd5b810190808035906020019092919050505061177d565b604051808273ffffffffffffffffffffffffffffffffffffffff1673ffffffffffffffffffffffffffffffffffffffff16815260200191505060405180910390f35b3480156107cf57600080fd5b506107fc600480360360208110156107e657600080fd5b81019080803590602001909291905050506117bb565b005b34801561080a57600080fd5b5061084d6004803603602081101561082157600080fd5b81019080803573ffffffffffffffffffffffffffffffffffffffff169060200190929190505050611961565b005b6060600460009054906101000a900473ffffffffffffffffffffffffffffffffffffffff1673ffffffffffffffffffffffffffffffffffffffff163373ffffffffffffffffffffffffffffffffffffffff1614806108f65750600660003373ffffffffffffffffffffffffffffffffffffffff1673ffffffffffffffffffffffffffffffffffffffff16815260200190815260200160002060009054906101000a900460ff165b151561096a576040517f08c379a00000000000000000000000000000000000000000000000000000000081526004018080602001828103825260168152602001807f4e6f7420656e6f75676820506572736d697373696f6e0000000000000000000081525060200191505060405180910390fd5b60098281548110151561097957fe5b906000526020600020018054600181600116156101000203166002900480601f016020809104026020016040519081016040528092919081815260200182805460018160011615610100020316600290048015610a175780601f106109ec57610100808354040283529160200191610a17565b820191906000526020600020905b8154815290600101906020018083116109fa57829003601f168201915b50505050509050919050565b60088190806001815401808255809150509060018203906000526020600020016000909192909190916101000a81548173ffffffffffffffffffffffffffffffffffffffff021916908373ffffffffffffffffffffffffffffffffffffffff1602179055505050565b60066020528060005260406000206000915054906101000a900460ff1681565b600460009054906101000a900473ffffffffffffffffffffffffffffffffffffffff1673ffffffffffffffffffffffffffffffffffffffff163373ffffffffffffffffffffffffffffffffffffffff16141515610b71576040517f08c379a000000000000000000000000000000000000000000000000000000000815260040180806020018281038252600d8152602001807f4163636573732044656e6965640000000000000000000000000000000000000081525060200191505060405180910390fd5b600660008273ffffffffffffffffffffffffffffffffffffffff1673ffffffffffffffffffffffffffffffffffffffff16815260200190815260200160002060009054906101000a900460ff16151515610c33576040517f08c379a00000000000000000000000000000000000000000000000000000000081526004018080602001828103825260118152602001807f5065726d697373696f6e2044656e69656400000000000000000000000000000081525060200191505060405180910390fd5b60008190508073ffffffffffffffffffffffffffffffffffffffff16635312396c306040518263ffffffff167c0100000000000000000000000000000000000000000000000000000000028152600401808273ffffffffffffffffffffffffffffffffffffffff1673ffffffffffffffffffffffffffffffffffffffff168152602001915050600060405180830381600087803b158015610cd357600080fd5b505af1158015610ce7573d6000803e3d6000fd5b505050506001600760008473ffffffffffffffffffffffffffffffffffffffff1673ffffffffffffffffffffffffffffffffffffffff16815260200190815260200160002060006101000a81548160ff021916908315150217905550600a600081548092919060010191905055506001600660008473ffffffffffffffffffffffffffffffffffffffff1673ffffffffffffffffffffffffffffffffffffffff16815260200190815260200160002060006101000a81548160ff0219169083151502179055505050565b600460009054906101000a900473ffffffffffffffffffffffffffffffffffffffff1673ffffffffffffffffffffffffffffffffffffffff163373ffffffffffffffffffffffffffffffffffffffff161480610e565750600660003373ffffffffffffffffffffffffffffffffffffffff1673ffffffffffffffffffffffffffffffffffffffff16815260200190815260200160002060009054906101000a900460ff165b1515610eca576040517f08c379a00000000000000000000000000000000000000000000000000000000081526004018080602001828103825260168152602001807f4e6f7420656e6f75676820506572736d697373696f6e0000000000000000000081525060200191505060405180910390fd5b6009819080600181540180825580915050906001820390600052602060002001600090919290919091509080519060200190610f07929190611a7a565b505050565b600a5481565b60076020528060005260406000206000915054906101000a900460ff1681565b600881815481101515610f4157fe5b906000526020600020016000915054906101000a900473ffffffffffffffffffffffffffffffffffffffff1681565b606080606080600460009054906101000a900473ffffffffffffffffffffffffffffffffffffffff1673ffffffffffffffffffffffffffffffffffffffff163373ffffffffffffffffffffffffffffffffffffffff1614151561103b576040517f08c379a000000000000000000000000000000000000000000000000000000000815260040180806020018281038252600d8152602001807f4163636573732044656e6965640000000000000000000000000000000000000081525060200191505060405180910390fd5b60008001600060010160006002016000600301838054600181600116156101000203166002900480601f0160208091040260200160405190810160405280929190818152602001828054600181600116156101000203166002900480156110e35780601f106110b8576101008083540402835291602001916110e3565b820191906000526020600020905b8154815290600101906020018083116110c657829003601f168201915b50505050509350828054600181600116156101000203166002900480601f01602080910402602001604051908101604052809291908181526020018280546001816001161561010002031660029004801561117f5780601f106111545761010080835404028352916020019161117f565b820191906000526020600020905b81548152906001019060200180831161116257829003601f168201915b50505050509250818054600181600116156101000203166002900480601f01602080910402602001604051908101604052809291908181526020018280546001816001161561010002031660029004801561121b5780601f106111f05761010080835404028352916020019161121b565b820191906000526020600020905b8154815290600101906020018083116111fe57829003601f168201915b50505050509150808054600181600116156101000203166002900480601f0160208091040260200160405190810160405280929190818152602001828054600181600116156101000203166002900480156112b75780601f1061128c576101008083540402835291602001916112b7565b820191906000526020600020905b81548152906001019060200180831161129a57829003601f168201915b50505050509050935093509350935090919293565b600460009054906101000a900473ffffffffffffffffffffffffffffffffffffffff1673ffffffffffffffffffffffffffffffffffffffff163373ffffffffffffffffffffffffffffffffffffffff16141515611391576040517f08c379a000000000000000000000000000000000000000000000000000000000815260040180806020018281038252600d8152602001807f4163636573732044656e6965640000000000000000000000000000000000000081525060200191505060405180910390fd5b60006008828154811015156113a257fe5b9060005260206000200160009054906101000a900473ffffffffffffffffffffffffffffffffffffffff16905060056008838154811015156113e057fe5b9060005260206000200160009054906101000a900473ffffffffffffffffffffffffffffffffffffffff1690806001815401808255809150509060018203906000526020600020016000909192909190916101000a81548173ffffffffffffffffffffffffffffffffffffffff021916908373ffffffffffffffffffffffffffffffffffffffff16021790555050600a6000815480929190600101919050555060016006600060088581548110151561149557fe5b9060005260206000200160009054906101000a900473ffffffffffffffffffffffffffffffffffffffff1673ffffffffffffffffffffffffffffffffffffffff1673ffffffffffffffffffffffffffffffffffffffff16815260200190815260200160002060006101000a81548160ff0219169083151502179055508073ffffffffffffffffffffffffffffffffffffffff1663f25efa11306040518263ffffffff167c0100000000000000000000000000000000000000000000000000000000028152600401808273ffffffffffffffffffffffffffffffffffffffff1673ffffffffffffffffffffffffffffffffffffffff168152602001915050600060405180830381600087803b1580156115ac57600080fd5b505af11580156115c0573d6000803e3d6000fd5b505050506008828154811015156115d357fe5b9060005260206000200160006101000a81549073ffffffffffffffffffffffffffffffffffffffff02191690555050565b6060600460009054906101000a900473ffffffffffffffffffffffffffffffffffffffff1673ffffffffffffffffffffffffffffffffffffffff163373ffffffffffffffffffffffffffffffffffffffff161415156116cb576040517f08c379a000000000000000000000000000000000000000000000000000000000815260040180806020018281038252600d8152602001807f4163636573732044656e6965640000000000000000000000000000000000000081525060200191505060405180910390fd5b600880548060200260200160405190810160405280929190818152602001828054801561174d57602002820191906000526020600020905b8160009054906101000a900473ffffffffffffffffffffffffffffffffffffffff1673ffffffffffffffffffffffffffffffffffffffff1681526020019060010190808311611703575b5050505050905090565b600460009054906101000a900473ffffffffffffffffffffffffffffffffffffffff1681565b60058181548110151561178c57fe5b906000526020600020016000915054906101000a900473ffffffffffffffffffffffffffffffffffffffff1681565b600460009054906101000a900473ffffffffffffffffffffffffffffffffffffffff1673ffffffffffffffffffffffffffffffffffffffff163373ffffffffffffffffffffffffffffffffffffffff16141515611880576040517f08c379a000000000000000000000000000000000000000000000000000000000815260040180806020018281038252600d8152602001807f4163636573732044656e6965640000000000000000000000000000000000000081525060200191505060405180910390fd5b6008805490508111156118925761195e565b60008190505b600880549050811015611946576008600182018154811015156118b757fe5b9060005260206000200160009054906101000a900473ffffffffffffffffffffffffffffffffffffffff166008828154811015156118f157fe5b9060005260206000200160006101000a81548173ffffffffffffffffffffffffffffffffffffffff021916908373ffffffffffffffffffffffffffffffffffffffff1602179055508080600101915050611898565b50600880548091906001900361195c9190611afa565b505b50565b6000600760008373ffffffffffffffffffffffffffffffffffffffff1673ffffffffffffffffffffffffffffffffffffffff16815260200190815260200160002060006101000a81548160ff02191690831515021790555060058190806001815401808255809150509060018203906000526020600020016000909192909190916101000a81548173ffffffffffffffffffffffffffffffffffffffff021916908373ffffffffffffffffffffffffffffffffffffffff160217905550506001600660008373ffffffffffffffffffffffffffffffffffffffff1673ffffffffffffffffffffffffffffffffffffffff16815260200190815260200160002060006101000a81548160ff02191690831515021790555050565b828054600181600116156101000203166002900490600052602060002090601f016020900481019282601f10611abb57805160ff1916838001178555611ae9565b82800160010185558215611ae9579182015b82811115611ae8578251825591602001919060010190611acd565b5b509050611af69190611b26565b5090565b815481835581811115611b2157818360005260206000209182019101611b209190611b26565b5b505050565b611b4891905b80821115611b44576000816000905550600101611b2c565b5090565b9056fea165627a7a72305820601e8c4126bd25d087340f67e1799b58d1f38e01431a98ae983ea5d736c0eab50029",
  "source": "//pragma solidity ^0.4.22;\npragma solidity ^0.5.0;\n\ncontract ElectronicHealthSystem{\n\n  address[] public providers;\n\n  uint public providerCount;\n\n  mapping (address => address) public profiles;\n  mapping (address => bool) profileExists;\n\n  function registerAsPatient(string memory _fName, string memory _lName, string memory _dateOfBirth, string memory _addressResidence) public {\n    require(!profileExists[msg.sender],'Patient already exists');\n    address newPatient = address(new Patient(_fName, _lName, _dateOfBirth, _addressResidence, msg.sender));\n    profiles[msg.sender] = newPatient;\n    profileExists[msg.sender] = true;\n  }\n\n  function registerAsProvider() public {\n    require(!profileExists[msg.sender], 'Provider already exists');\n    address newProvider = address(new Provider(msg.sender));\n    providers.push(newProvider);\n    profiles[msg.sender] = newProvider;\n    profileExists[msg.sender] = true;\n    providerCount++;\n  }\n}\n\ncontract Provider {\n\n    mapping (address => bool) patients;\n\n    address[] public patientAddresses;\n\n    address[] public requests;\n\n    mapping (address=>bool) public sentRequests;\n\n    uint public numberOfPatients;\n\n    address public owner;\n\n    modifier ownerOnly{\n      require(msg.sender == owner,'Permission Denied');\n      _;\n    }\n\n    constructor(address _owner) public {\n      owner = _owner;\n    }\n\n    function addPatient(address _patientAddress) public ownerOnly {\n      require(!sentRequests[_patientAddress],'Patient already added');\n      Patient patient = Patient(_patientAddress);\n      patient._providerRequests(address(this));\n      sentRequests[_patientAddress] = true;\n    }\n\n    function acceptPatient(uint _index) public ownerOnly {\n      Patient patient = Patient(requests[_index]);\n      patientAddresses.push(requests[_index]);\n      //deleteRequest(_index);\n      numberOfPatients++;\n      delete requests[_index];\n      patient._clearRequest(address(this));\n    }\n\n    function pendingRequests() public ownerOnly view returns (address[] memory) {\n      return requests;\n    }\n\n    function deleteRequest(uint _index) public ownerOnly {\n        if (_index > requests.length) return;\n        for(uint i = _index ; i < requests.length; i++){\n            requests[i] = requests[i+1];\n        }\n        requests.length--;\n    }\n\n    function patientList() public ownerOnly view returns (address[] memory) {\n      return patientAddresses;\n    }\n\n    function _clearRequest(address _patientAddress) public {\n      sentRequests[_patientAddress] = false;\n      patientAddresses.push(_patientAddress);\n      numberOfPatients++;\n    }\n\n    //Allow providers to send a request\n    function _patientRequest(address _patientAddress) public {\n      requests.push(_patientAddress);\n    }\n\n    function uploadFiles(bytes memory _ipfsHash, address _patientAddress) public ownerOnly {\n        Patient patient = Patient(_patientAddress);\n        patient.uploadFiles(_ipfsHash);\n    }\n\n    function getFiles(uint _index, address _patientAddress) public ownerOnly view returns (bytes memory) {\n        Patient patient = Patient(_patientAddress);\n        bytes memory file = patient.getFiles(_index);\n        return file;\n    }\n}\n\ncontract Patient{\n\n    struct Identity {\n        string firstName;\n        string lastName;\n        string dateOfBirth;\n        string addressResidence;\n    }\n\n    Identity identity;\n\n    address public owner;\n\n    address[] public addedProviders;\n\n    mapping (address => bool) public addedProvidersAccess;\n\n    mapping (address => bool) public sentRequests;\n\n    address[] public requests;\n\n    bytes[] files;\n\n    uint public numberOfMedicalProviders;\n\n    modifier ownerOnly(){\n        require(msg.sender == owner,'Access Denied');\n        _;\n    }\n\n    modifier restricted(){\n        require(msg.sender == owner || addedProvidersAccess[msg.sender],'Not enough Persmission');\n        _;\n    }\n\n    constructor(string memory _fName, string memory _lName, string memory _dateOfBirth, string memory _addressResidence, address _owner) public {\n        identity.firstName = _fName;\n        identity.lastName = _lName;\n        identity.dateOfBirth = _dateOfBirth;\n        identity.addressResidence = _addressResidence;\n        owner = _owner;\n        numberOfMedicalProviders = 0;\n    }\n\n    function _clearRequest(address _providerAddress) public {\n      sentRequests[_providerAddress] = false;\n      addedProviders.push(_providerAddress);\n      addedProvidersAccess[_providerAddress] = true;\n\n    }\n\n    function _providerRequests(address _providerAddress) public {\n      requests.push(_providerAddress);\n    }\n\n    function getRequests() public ownerOnly view returns(address[] memory){\n      return requests;\n    }\n\n    function addProvider(address _providerAddress)  public ownerOnly {\n      require(!addedProvidersAccess[_providerAddress],'Permission Denied');\n      Provider provider = Provider(_providerAddress);\n      provider._patientRequest(address(this));\n      sentRequests[_providerAddress] = true;\n      numberOfMedicalProviders++;\n      addedProvidersAccess[_providerAddress] = true;\n    }\n\n    function acceptProvider(uint _index) public ownerOnly {\n      Provider provider = Provider(requests[_index]);\n      addedProviders.push(requests[_index]);\n      numberOfMedicalProviders++;\n      addedProvidersAccess[requests[_index]] = true;\n      provider._clearRequest(address(this));\n      delete requests[_index];\n    }\n\n    function deleteRequest(uint _index) public ownerOnly {\n        if (_index > requests.length) return;\n        for(uint i = _index ; i < requests.length; i++){\n            requests[i] = requests[i+1];\n        }\n        requests.length--;\n    }\n\n    function uploadFiles(bytes memory ipfsHash) public restricted {\n        files.push(ipfsHash);\n    }\n\n    function getFiles(uint _index) public restricted view returns (bytes memory) {\n        return files[_index];\n    }\n\n    function returnIdentity() public ownerOnly view returns (string memory, string memory, string memory, string memory) {\n        return (identity.firstName, identity.lastName, identity.dateOfBirth, identity.addressResidence);\n    }\n}\n",
  "sourcePath": "/home/castor/Desktop/ehr/contracts/Medical.sol",
  "compiler": {
    "name": "solc",
    "version": "0.5.0+commit.1d4f565a.Emscripten.clang"
  },
  "schemaVersion": "3.0.9",
  "updatedAt": "2019-07-17T08:22:06.671Z",
  "devdoc": {
    "methods": {}
  },
  "userdoc": {
    "methods": {}
  }
}