{
  "contractName": "Provider",
  "abi": [
    {
      "constant": true,
      "inputs": [
        {
          "name": "",
          "type": "address"
        }
      ],
      "name": "sentRequests",
      "outputs": [
        {
          "name": "",
          "type": "bool"
        }
      ],
      "payable": false,
      "stateMutability": "view",
      "type": "function",
      "signature": "0x4fc7daff"
    },
    {
      "constant": true,
      "inputs": [],
      "name": "numberOfPatients",
      "outputs": [
        {
          "name": "",
          "type": "uint256"
        }
      ],
      "payable": false,
      "stateMutability": "view",
      "type": "function",
      "signature": "0x66fd838c"
    },
    {
      "constant": true,
      "inputs": [
        {
          "name": "",
          "type": "uint256"
        }
      ],
      "name": "requests",
      "outputs": [
        {
          "name": "",
          "type": "address"
        }
      ],
      "payable": false,
      "stateMutability": "view",
      "type": "function",
      "signature": "0x81d12c58"
    },
    {
      "constant": true,
      "inputs": [],
      "name": "owner",
      "outputs": [
        {
          "name": "",
          "type": "address"
        }
      ],
      "payable": false,
      "stateMutability": "view",
      "type": "function",
      "signature": "0x8da5cb5b"
    },
    {
      "constant": true,
      "inputs": [
        {
          "name": "",
          "type": "uint256"
        }
      ],
      "name": "patientAddresses",
      "outputs": [
        {
          "name": "",
          "type": "address"
        }
      ],
      "payable": false,
      "stateMutability": "view",
      "type": "function",
      "signature": "0xb40f1691"
    },
    {
      "inputs": [
        {
          "name": "_owner",
          "type": "address"
        }
      ],
      "payable": false,
      "stateMutability": "nonpayable",
      "type": "constructor",
      "signature": "constructor"
    },
    {
      "constant": false,
      "inputs": [
        {
          "name": "_patientAddress",
          "type": "address"
        }
      ],
      "name": "addPatient",
      "outputs": [],
      "payable": false,
      "stateMutability": "nonpayable",
      "type": "function",
      "signature": "0x6d263ceb"
    },
    {
      "constant": false,
      "inputs": [
        {
          "name": "_index",
          "type": "uint256"
        }
      ],
      "name": "acceptPatient",
      "outputs": [],
      "payable": false,
      "stateMutability": "nonpayable",
      "type": "function",
      "signature": "0x89ace8e8"
    },
    {
      "constant": true,
      "inputs": [],
      "name": "pendingRequests",
      "outputs": [
        {
          "name": "",
          "type": "address[]"
        }
      ],
      "payable": false,
      "stateMutability": "view",
      "type": "function",
      "signature": "0x4a0aee29"
    },
    {
      "constant": false,
      "inputs": [
        {
          "name": "_index",
          "type": "uint256"
        }
      ],
      "name": "deleteRequest",
      "outputs": [],
      "payable": false,
      "stateMutability": "nonpayable",
      "type": "function",
      "signature": "0xe9a21bcd"
    },
    {
      "constant": true,
      "inputs": [],
      "name": "patientList",
      "outputs": [
        {
          "name": "",
          "type": "address[]"
        }
      ],
      "payable": false,
      "stateMutability": "view",
      "type": "function",
      "signature": "0x92b28753"
    },
    {
      "constant": false,
      "inputs": [
        {
          "name": "_patientAddress",
          "type": "address"
        }
      ],
      "name": "_clearRequest",
      "outputs": [],
      "payable": false,
      "stateMutability": "nonpayable",
      "type": "function",
      "signature": "0xf25efa11"
    },
    {
      "constant": false,
      "inputs": [
        {
          "name": "_patientAddress",
          "type": "address"
        }
      ],
      "name": "_patientRequest",
      "outputs": [],
      "payable": false,
      "stateMutability": "nonpayable",
      "type": "function",
      "signature": "0x5312396c"
    },
    {
      "constant": false,
      "inputs": [
        {
          "name": "_ipfsHash",
          "type": "bytes"
        },
        {
          "name": "_patientAddress",
          "type": "address"
        }
      ],
      "name": "uploadFiles",
      "outputs": [],
      "payable": false,
      "stateMutability": "nonpayable",
      "type": "function",
      "signature": "0x568e3069"
    },
    {
      "constant": true,
      "inputs": [
        {
          "name": "_index",
          "type": "uint256"
        },
        {
          "name": "_patientAddress",
          "type": "address"
        }
      ],
      "name": "getFiles",
      "outputs": [
        {
          "name": "",
          "type": "bytes"
        }
      ],
      "payable": false,
      "stateMutability": "view",
      "type": "function",
      "signature": "0x4e1ba82e"
    }
  ],
  "bytecode": "0x608060405234801561001057600080fd5b50604051602080610e8e8339810180604052602081101561003057600080fd5b505160058054600160a060020a031916600160a060020a03909216919091179055610e2e806100606000396000f3fe6080604052600436106100cf5763ffffffff7c01000000000000000000000000000000000000000000000000000000006000350416634a0aee2981146100d45780634e1ba82e146101395780634fc7daff146101e75780635312396c1461022e578063568e30691461026357806366fd838c146103215780636d263ceb1461034857806381d12c581461037b57806389ace8e8146103c15780638da5cb5b146103eb57806392b2875314610400578063b40f169114610415578063e9a21bcd1461043f578063f25efa1114610469575b600080fd5b3480156100e057600080fd5b506100e961049c565b60408051602080825283518183015283519192839290830191858101910280838360005b8381101561012557818101518382015260200161010d565b505050509050019250505060405180910390f35b34801561014557600080fd5b506101726004803603604081101561015c57600080fd5b5080359060200135600160a060020a0316610550565b6040805160208082528351818301528351919283929083019185019080838360005b838110156101ac578181015183820152602001610194565b50505050905090810190601f1680156101d95780820380516001836020036101000a031916815260200191505b509250505060405180910390f35b3480156101f357600080fd5b5061021a6004803603602081101561020a57600080fd5b5035600160a060020a031661069b565b604080519115158252519081900360200190f35b34801561023a57600080fd5b506102616004803603602081101561025157600080fd5b5035600160a060020a03166106b0565b005b34801561026f57600080fd5b506102616004803603604081101561028657600080fd5b8101906020810181356401000000008111156102a157600080fd5b8201836020820111156102b357600080fd5b803590602001918460018302840111640100000000831117156102d557600080fd5b91908080601f01602080910402602001604051908101604052809392919081815260200183838082843760009201919091525092955050509035600160a060020a0316915061070f9050565b34801561032d57600080fd5b50610336610841565b60408051918252519081900360200190f35b34801561035457600080fd5b506102616004803603602081101561036b57600080fd5b5035600160a060020a0316610847565b34801561038757600080fd5b506103a56004803603602081101561039e57600080fd5b50356109aa565b60408051600160a060020a039092168252519081900360200190f35b3480156103cd57600080fd5b50610261600480360360208110156103e457600080fd5b50356109d2565b3480156103f757600080fd5b506103a5610b5a565b34801561040c57600080fd5b506100e9610b69565b34801561042157600080fd5b506103a56004803603602081101561043857600080fd5b5035610c1a565b34801561044b57600080fd5b506102616004803603602081101561046257600080fd5b5035610c28565b34801561047557600080fd5b506102616004803603602081101561048c57600080fd5b5035600160a060020a0316610d21565b600554606090600160a060020a031633146104ef576040805160e560020a62461bcd0281526020600482015260116024820152600080516020610de3833981519152604482015290519081900360640190fd5b600280548060200260200160405190810160405280929190818152602001828054801561054557602002820191906000526020600020905b8154600160a060020a03168152600190910190602001808311610527575b505050505090505b90565b600554606090600160a060020a031633146105a3576040805160e560020a62461bcd0281526020600482015260116024820152600080516020610de3833981519152604482015290519081900360640190fd5b6000829050606081600160a060020a03166312506f4d866040518263ffffffff167c01000000000000000000000000000000000000000000000000000000000281526004018082815260200191505060006040518083038186803b15801561060a57600080fd5b505afa15801561061e573d6000803e3d6000fd5b505050506040513d6000823e601f3d908101601f19168201604052602081101561064757600080fd5b81019080805164010000000081111561065f57600080fd5b8201602081018481111561067257600080fd5b815164010000000081118282018710171561068c57600080fd5b50909998505050505050505050565b60036020526000908152604090205460ff1681565b600280546001810182556000919091527f405787fa12a823e0f2b7631cc41b3ba8828b3321ca811111fa75cd3aa3bb5ace01805473ffffffffffffffffffffffffffffffffffffffff1916600160a060020a0392909216919091179055565b600554600160a060020a0316331461075f576040805160e560020a62461bcd0281526020600482015260116024820152600080516020610de3833981519152604482015290519081900360640190fd5b6040517f483cbf250000000000000000000000000000000000000000000000000000000081526020600482018181528451602484015284518493600160a060020a0385169363483cbf25938893909283926044909101919085019080838360005b838110156107d85781810151838201526020016107c0565b50505050905090810190601f1680156108055780820380516001836020036101000a031916815260200191505b5092505050600060405180830381600087803b15801561082457600080fd5b505af1158015610838573d6000803e3d6000fd5b50505050505050565b60045481565b600554600160a060020a03163314610897576040805160e560020a62461bcd0281526020600482015260116024820152600080516020610de3833981519152604482015290519081900360640190fd5b600160a060020a03811660009081526003602052604090205460ff1615610908576040805160e560020a62461bcd02815260206004820152601560248201527f50617469656e7420616c72656164792061646465640000000000000000000000604482015290519081900360640190fd5b604080517f2c694c4b00000000000000000000000000000000000000000000000000000000815230600482015290518291600160a060020a03831691632c694c4b9160248082019260009290919082900301818387803b15801561096b57600080fd5b505af115801561097f573d6000803e3d6000fd5b505050600160a060020a039092166000908152600360205260409020805460ff191660011790555050565b60028054829081106109b857fe5b600091825260209091200154600160a060020a0316905081565b600554600160a060020a03163314610a22576040805160e560020a62461bcd0281526020600482015260116024820152600080516020610de3833981519152604482015290519081900360640190fd5b6000600282815481101515610a3357fe5b60009182526020909120015460028054600160a060020a03909216925060019184908110610a5d57fe5b60009182526020808320909101548354600181810186559484529190922001805473ffffffffffffffffffffffffffffffffffffffff1916600160a060020a039092169190911790556004805490910190556002805483908110610abd57fe5b60009182526020822001805473ffffffffffffffffffffffffffffffffffffffff19169055604080517ff25efa110000000000000000000000000000000000000000000000000000000081523060048201529051600160a060020a0384169263f25efa11926024808201939182900301818387803b158015610b3e57600080fd5b505af1158015610b52573d6000803e3d6000fd5b505050505050565b600554600160a060020a031681565b600554606090600160a060020a03163314610bbc576040805160e560020a62461bcd0281526020600482015260116024820152600080516020610de3833981519152604482015290519081900360640190fd5b600180548060200260200160405190810160405280929190818152602001828054801561054557602002820191906000526020600020908154600160a060020a03168152600190910190602001808311610527575050505050905090565b60018054829081106109b857fe5b600554600160a060020a03163314610c78576040805160e560020a62461bcd0281526020600482015260116024820152600080516020610de3833981519152604482015290519081900360640190fd5b600254811115610c8757610d1e565b805b600254811015610d08576002805460018301908110610ca457fe5b60009182526020909120015460028054600160a060020a039092169183908110610cca57fe5b6000918252602090912001805473ffffffffffffffffffffffffffffffffffffffff1916600160a060020a0392909216919091179055600101610c89565b506002805490610d1c906000198301610d9b565b505b50565b600160a060020a03166000818152600360205260408120805460ff19169055600180548082018255918190527fb10e2d527612073b26eecdfd717e6a320cf44b4afac2b0732d9fcbe2b7fa0cf6909101805473ffffffffffffffffffffffffffffffffffffffff1916909217909155600480549091019055565b815481835581811115610dbf57600083815260209020610dbf918101908301610dc4565b505050565b61054d91905b80821115610dde5760008155600101610dca565b509056fe5065726d697373696f6e2044656e696564000000000000000000000000000000a165627a7a7230582018978f67bd53d3894b5ad63c93bda5767a2ec9472bbb04a725826bdf8e0b0f5a0029",
  "source": "//pragma solidity ^0.4.22;\npragma solidity ^0.5.0;\n\ncontract ElectronicHealthSystem{\n\n  address[] public providers;\n\n  uint public providerCount;\n\n  mapping (address => address) public profiles;\n  mapping (address => bool) profileExists;\n\n  function registerAsPatient(string memory _fName, string memory _lName, string memory _dateOfBirth, string memory _addressResidence) public {\n    require(!profileExists[msg.sender],'Patient already exists');\n    address newPatient = address(new Patient(_fName, _lName, _dateOfBirth, _addressResidence, msg.sender));\n    profiles[msg.sender] = newPatient;\n    profileExists[msg.sender] = true;\n  }\n\n  function registerAsProvider() public {\n    require(!profileExists[msg.sender], 'Provider already exists');\n    address newProvider = address(new Provider(msg.sender));\n    providers.push(newProvider);\n    profiles[msg.sender] = newProvider;\n    profileExists[msg.sender] = true;\n    providerCount++;\n  }\n}\n\ncontract Provider {\n\n    mapping (address => bool) patients;\n\n    address[] public patientAddresses;\n\n    address[] public requests;\n\n    mapping (address=>bool) public sentRequests;\n\n    uint public numberOfPatients;\n\n    address public owner;\n\n    modifier ownerOnly{\n      require(msg.sender == owner,'Permission Denied');\n      _;\n    }\n\n    constructor(address _owner) public {\n      owner = _owner;\n    }\n\n    function addPatient(address _patientAddress) public ownerOnly {\n      require(!sentRequests[_patientAddress],'Patient already added');\n      Patient patient = Patient(_patientAddress);\n      patient._providerRequests(address(this));\n      sentRequests[_patientAddress] = true;\n    }\n\n    function acceptPatient(uint _index) public ownerOnly {\n      Patient patient = Patient(requests[_index]);\n      patientAddresses.push(requests[_index]);\n      //deleteRequest(_index);\n      numberOfPatients++;\n      delete requests[_index];\n      patient._clearRequest(address(this));\n    }\n\n    function pendingRequests() public ownerOnly view returns (address[] memory) {\n      return requests;\n    }\n\n    function deleteRequest(uint _index) public ownerOnly {\n        if (_index > requests.length) return;\n        for(uint i = _index ; i < requests.length; i++){\n            requests[i] = requests[i+1];\n        }\n        requests.length--;\n    }\n\n    function patientList() public ownerOnly view returns (address[] memory) {\n      return patientAddresses;\n    }\n\n    function _clearRequest(address _patientAddress) public {\n      sentRequests[_patientAddress] = false;\n      patientAddresses.push(_patientAddress);\n      numberOfPatients++;\n    }\n\n    //Allow providers to send a request\n    function _patientRequest(address _patientAddress) public {\n      requests.push(_patientAddress);\n    }\n\n    function uploadFiles(bytes memory _ipfsHash, address _patientAddress) public ownerOnly {\n        Patient patient = Patient(_patientAddress);\n        patient.uploadFiles(_ipfsHash);\n    }\n\n    function getFiles(uint _index, address _patientAddress) public ownerOnly view returns (bytes memory) {\n        Patient patient = Patient(_patientAddress);\n        bytes memory file = patient.getFiles(_index);\n        return file;\n    }\n}\n\ncontract Patient{\n\n    struct Identity {\n        string firstName;\n        string lastName;\n        string dateOfBirth;\n        string addressResidence;\n    }\n\n    Identity identity;\n\n    address public owner;\n\n    address[] public addedProviders;\n\n    mapping (address => bool) public addedProvidersAccess;\n\n    mapping (address => bool) public sentRequests;\n\n    address[] public requests;\n\n    bytes[] files;\n\n    uint public numberOfMedicalProviders;\n\n    // modifier ownerOnly(){\n    //     require(msg.sender == owner,'Access Denied');\n    //     _;\n    // }\n\n    modifier restricted(){\n        require(msg.sender == owner || addedProvidersAccess[msg.sender],'Not enough Persmission');\n        _;\n    }\n\n    constructor(string memory _fName, string memory _lName, string memory _dateOfBirth, string memory _addressResidence, address _owner) public {\n        identity.firstName = _fName;\n        identity.lastName = _lName;\n        identity.dateOfBirth = _dateOfBirth;\n        identity.addressResidence = _addressResidence;\n        owner = _owner;\n        numberOfMedicalProviders = 0;\n    }\n\n    function _clearRequest(address _providerAddress) public {\n      sentRequests[_providerAddress] = false;\n      addedProviders.push(_providerAddress);\n      addedProvidersAccess[_providerAddress] = true;\n\n    }\n\n    function _providerRequests(address _providerAddress) public {\n      requests.push(_providerAddress);\n    }\n\n    function getRequests() public view returns(address[] memory){\n      return requests;\n    }\n\n    function addProvider(address _providerAddress)  public {\n      require(!addedProvidersAccess[_providerAddress],'Permission Denied');\n      Provider provider = Provider(_providerAddress);\n      provider._patientRequest(address(this));\n      sentRequests[_providerAddress] = true;\n      numberOfMedicalProviders++;\n      addedProvidersAccess[_providerAddress] = true;\n    }\n\n    function acceptProvider(uint _index) public {\n      Provider provider = Provider(requests[_index]);\n      addedProviders.push(requests[_index]);\n      numberOfMedicalProviders++;\n      addedProvidersAccess[requests[_index]] = true;\n      provider._clearRequest(address(this));\n      delete requests[_index];\n    }\n\n    function deleteRequest(uint _index) public {\n        if (_index > requests.length) return;\n        for(uint i = _index ; i < requests.length; i++){\n            requests[i] = requests[i+1];\n        }\n        requests.length--;\n    }\n\n    function uploadFiles(bytes memory ipfsHash) public restricted {\n        files.push(ipfsHash);\n    }\n\n    function getFiles(uint _index) public restricted view returns (bytes memory) {\n        return files[_index];\n    }\n\n    function returnIdentity() public view returns (string memory) {\n        return identity.firstName;\n    }\n}\n",
  "sourcePath": "/home/castor/Desktop/ehr/contracts/Medical.sol",
  "compiler": {
    "name": "solc",
    "version": "0.5.0+commit.1d4f565a.Emscripten.clang"
  },
  "schemaVersion": "3.0.1",
  "updatedAt": "2019-07-24T09:41:06.110Z",
  "devdoc": {
    "methods": {}
  },
  "userdoc": {
    "methods": {}
  }
}