{
  "contractName": "Provider",
  "abi": [
    {
      "constant": true,
      "inputs": [
        {
          "name": "",
          "type": "address"
        }
      ],
      "name": "sentRequests",
      "outputs": [
        {
          "name": "",
          "type": "bool"
        }
      ],
      "payable": false,
      "stateMutability": "view",
      "type": "function"
    },
    {
      "constant": true,
      "inputs": [],
      "name": "numberOfPatients",
      "outputs": [
        {
          "name": "",
          "type": "uint256"
        }
      ],
      "payable": false,
      "stateMutability": "view",
      "type": "function"
    },
    {
      "constant": true,
      "inputs": [
        {
          "name": "",
          "type": "uint256"
        }
      ],
      "name": "requests",
      "outputs": [
        {
          "name": "",
          "type": "address"
        }
      ],
      "payable": false,
      "stateMutability": "view",
      "type": "function"
    },
    {
      "constant": true,
      "inputs": [],
      "name": "owner",
      "outputs": [
        {
          "name": "",
          "type": "address"
        }
      ],
      "payable": false,
      "stateMutability": "view",
      "type": "function"
    },
    {
      "constant": true,
      "inputs": [
        {
          "name": "",
          "type": "uint256"
        }
      ],
      "name": "patientAddresses",
      "outputs": [
        {
          "name": "",
          "type": "address"
        }
      ],
      "payable": false,
      "stateMutability": "view",
      "type": "function"
    },
    {
      "inputs": [
        {
          "name": "_owner",
          "type": "address"
        }
      ],
      "payable": false,
      "stateMutability": "nonpayable",
      "type": "constructor"
    },
    {
      "constant": false,
      "inputs": [
        {
          "name": "_patientAddress",
          "type": "address"
        }
      ],
      "name": "addPatient",
      "outputs": [],
      "payable": false,
      "stateMutability": "nonpayable",
      "type": "function"
    },
    {
      "constant": false,
      "inputs": [
        {
          "name": "_index",
          "type": "uint256"
        }
      ],
      "name": "acceptPatient",
      "outputs": [],
      "payable": false,
      "stateMutability": "nonpayable",
      "type": "function"
    },
    {
      "constant": true,
      "inputs": [],
      "name": "pendingRequests",
      "outputs": [
        {
          "name": "",
          "type": "address[]"
        }
      ],
      "payable": false,
      "stateMutability": "view",
      "type": "function"
    },
    {
      "constant": false,
      "inputs": [
        {
          "name": "_index",
          "type": "uint256"
        }
      ],
      "name": "deleteRequest",
      "outputs": [],
      "payable": false,
      "stateMutability": "nonpayable",
      "type": "function"
    },
    {
      "constant": true,
      "inputs": [],
      "name": "patientList",
      "outputs": [
        {
          "name": "",
          "type": "address[]"
        }
      ],
      "payable": false,
      "stateMutability": "view",
      "type": "function"
    },
    {
      "constant": false,
      "inputs": [
        {
          "name": "_patientAddress",
          "type": "address"
        }
      ],
      "name": "_clearRequest",
      "outputs": [],
      "payable": false,
      "stateMutability": "nonpayable",
      "type": "function"
    },
    {
      "constant": false,
      "inputs": [
        {
          "name": "_patientAddress",
          "type": "address"
        }
      ],
      "name": "_patientRequest",
      "outputs": [],
      "payable": false,
      "stateMutability": "nonpayable",
      "type": "function"
    },
    {
      "constant": false,
      "inputs": [
        {
          "name": "_ipfsHash",
          "type": "bytes"
        },
        {
          "name": "_patientAddress",
          "type": "address"
        }
      ],
      "name": "uploadFiles",
      "outputs": [],
      "payable": false,
      "stateMutability": "nonpayable",
      "type": "function"
    },
    {
      "constant": true,
      "inputs": [
        {
          "name": "_index",
          "type": "uint256"
        },
        {
          "name": "_patientAddress",
          "type": "address"
        }
      ],
      "name": "getFiles",
      "outputs": [
        {
          "name": "",
          "type": "bytes"
        }
      ],
      "payable": false,
      "stateMutability": "view",
      "type": "function"
    }
  ],
  "bytecode": "0x608060405234801561001057600080fd5b506040516020806116e88339810180604052602081101561003057600080fd5b810190808051906020019092919050505080600560006101000a81548173ffffffffffffffffffffffffffffffffffffffff021916908373ffffffffffffffffffffffffffffffffffffffff16021790555050611656806100926000396000f3fe6080604052600436106100d0576000357c0100000000000000000000000000000000000000000000000000000000900463ffffffff1680634a0aee29146100d55780634e1ba82e146101415780634fc7daff146102155780635312396c1461027e578063568e3069146102cf57806366fd838c146103b75780636d263ceb146103e257806381d12c581461043357806389ace8e8146104ae5780638da5cb5b146104e957806392b2875314610540578063b40f1691146105ac578063e9a21bcd14610627578063f25efa1114610662575b600080fd5b3480156100e157600080fd5b506100ea6106b3565b6040518080602001828103825283818151815260200191508051906020019060200280838360005b8381101561012d578082015181840152602081019050610112565b505050509050019250505060405180910390f35b34801561014d57600080fd5b5061019a6004803603604081101561016457600080fd5b8101908080359060200190929190803573ffffffffffffffffffffffffffffffffffffffff169060200190929190505050610806565b6040518080602001828103825283818151815260200191508051906020019080838360005b838110156101da5780820151818401526020810190506101bf565b50505050905090810190601f1680156102075780820380516001836020036101000a031916815260200191505b509250505060405180910390f35b34801561022157600080fd5b506102646004803603602081101561023857600080fd5b81019080803573ffffffffffffffffffffffffffffffffffffffff1690602001909291905050506109df565b604051808215151515815260200191505060405180910390f35b34801561028a57600080fd5b506102cd600480360360208110156102a157600080fd5b81019080803573ffffffffffffffffffffffffffffffffffffffff1690602001909291905050506109ff565b005b3480156102db57600080fd5b506103b5600480360360408110156102f257600080fd5b810190808035906020019064010000000081111561030f57600080fd5b82018360208201111561032157600080fd5b8035906020019184600183028401116401000000008311171561034357600080fd5b91908080601f016020809104026020016040519081016040528093929190818152602001838380828437600081840152601f19601f820116905080830192505050505050509192919290803573ffffffffffffffffffffffffffffffffffffffff169060200190929190505050610a68565b005b3480156103c357600080fd5b506103cc610c23565b6040518082815260200191505060405180910390f35b3480156103ee57600080fd5b506104316004803603602081101561040557600080fd5b81019080803573ffffffffffffffffffffffffffffffffffffffff169060200190929190505050610c29565b005b34801561043f57600080fd5b5061046c6004803603602081101561045657600080fd5b8101908080359060200190929190505050610ec4565b604051808273ffffffffffffffffffffffffffffffffffffffff1673ffffffffffffffffffffffffffffffffffffffff16815260200191505060405180910390f35b3480156104ba57600080fd5b506104e7600480360360208110156104d157600080fd5b8101908080359060200190929190505050610f02565b005b3480156104f557600080fd5b506104fe6111a9565b604051808273ffffffffffffffffffffffffffffffffffffffff1673ffffffffffffffffffffffffffffffffffffffff16815260200191505060405180910390f35b34801561054c57600080fd5b506105556111cf565b6040518080602001828103825283818151815260200191508051906020019060200280838360005b8381101561059857808201518184015260208101905061057d565b505050509050019250505060405180910390f35b3480156105b857600080fd5b506105e5600480360360208110156105cf57600080fd5b8101908080359060200190929190505050611322565b604051808273ffffffffffffffffffffffffffffffffffffffff1673ffffffffffffffffffffffffffffffffffffffff16815260200191505060405180910390f35b34801561063357600080fd5b506106606004803603602081101561064a57600080fd5b8101908080359060200190929190505050611360565b005b34801561066e57600080fd5b506106b16004803603602081101561068557600080fd5b81019080803573ffffffffffffffffffffffffffffffffffffffff169060200190929190505050611506565b005b6060600560009054906101000a900473ffffffffffffffffffffffffffffffffffffffff1673ffffffffffffffffffffffffffffffffffffffff163373ffffffffffffffffffffffffffffffffffffffff1614151561077a576040517f08c379a00000000000000000000000000000000000000000000000000000000081526004018080602001828103825260118152602001807f5065726d697373696f6e2044656e69656400000000000000000000000000000081525060200191505060405180910390fd5b60028054806020026020016040519081016040528092919081815260200182805480156107fc57602002820191906000526020600020905b8160009054906101000a900473ffffffffffffffffffffffffffffffffffffffff1673ffffffffffffffffffffffffffffffffffffffff16815260200190600101908083116107b2575b5050505050905090565b6060600560009054906101000a900473ffffffffffffffffffffffffffffffffffffffff1673ffffffffffffffffffffffffffffffffffffffff163373ffffffffffffffffffffffffffffffffffffffff161415156108cd576040517f08c379a00000000000000000000000000000000000000000000000000000000081526004018080602001828103825260118152602001807f5065726d697373696f6e2044656e69656400000000000000000000000000000081525060200191505060405180910390fd5b600082905060608173ffffffffffffffffffffffffffffffffffffffff166312506f4d866040518263ffffffff167c01000000000000000000000000000000000000000000000000000000000281526004018082815260200191505060006040518083038186803b15801561094157600080fd5b505afa158015610955573d6000803e3d6000fd5b505050506040513d6000823e3d601f19601f82011682018060405250602081101561097f57600080fd5b81019080805164010000000081111561099757600080fd5b828101905060208101848111156109ad57600080fd5b81518560018202830111640100000000821117156109ca57600080fd5b50509291905050509050809250505092915050565b60036020528060005260406000206000915054906101000a900460ff1681565b60028190806001815401808255809150509060018203906000526020600020016000909192909190916101000a81548173ffffffffffffffffffffffffffffffffffffffff021916908373ffffffffffffffffffffffffffffffffffffffff1602179055505050565b600560009054906101000a900473ffffffffffffffffffffffffffffffffffffffff1673ffffffffffffffffffffffffffffffffffffffff163373ffffffffffffffffffffffffffffffffffffffff16141515610b2d576040517f08c379a00000000000000000000000000000000000000000000000000000000081526004018080602001828103825260118152602001807f5065726d697373696f6e2044656e69656400000000000000000000000000000081525060200191505060405180910390fd5b60008190508073ffffffffffffffffffffffffffffffffffffffff1663483cbf25846040518263ffffffff167c01000000000000000000000000000000000000000000000000000000000281526004018080602001828103825283818151815260200191508051906020019080838360005b83811015610bba578082015181840152602081019050610b9f565b50505050905090810190601f168015610be75780820380516001836020036101000a031916815260200191505b5092505050600060405180830381600087803b158015610c0657600080fd5b505af1158015610c1a573d6000803e3d6000fd5b50505050505050565b60045481565b600560009054906101000a900473ffffffffffffffffffffffffffffffffffffffff1673ffffffffffffffffffffffffffffffffffffffff163373ffffffffffffffffffffffffffffffffffffffff16141515610cee576040517f08c379a00000000000000000000000000000000000000000000000000000000081526004018080602001828103825260118152602001807f5065726d697373696f6e2044656e69656400000000000000000000000000000081525060200191505060405180910390fd5b600360008273ffffffffffffffffffffffffffffffffffffffff1673ffffffffffffffffffffffffffffffffffffffff16815260200190815260200160002060009054906101000a900460ff16151515610db0576040517f08c379a00000000000000000000000000000000000000000000000000000000081526004018080602001828103825260158152602001807f50617469656e7420616c7265616479206164646564000000000000000000000081525060200191505060405180910390fd5b60008190508073ffffffffffffffffffffffffffffffffffffffff16632c694c4b306040518263ffffffff167c0100000000000000000000000000000000000000000000000000000000028152600401808273ffffffffffffffffffffffffffffffffffffffff1673ffffffffffffffffffffffffffffffffffffffff168152602001915050600060405180830381600087803b158015610e5057600080fd5b505af1158015610e64573d6000803e3d6000fd5b505050506001600360008473ffffffffffffffffffffffffffffffffffffffff1673ffffffffffffffffffffffffffffffffffffffff16815260200190815260200160002060006101000a81548160ff0219169083151502179055505050565b600281815481101515610ed357fe5b906000526020600020016000915054906101000a900473ffffffffffffffffffffffffffffffffffffffff1681565b600560009054906101000a900473ffffffffffffffffffffffffffffffffffffffff1673ffffffffffffffffffffffffffffffffffffffff163373ffffffffffffffffffffffffffffffffffffffff16141515610fc7576040517f08c379a00000000000000000000000000000000000000000000000000000000081526004018080602001828103825260118152602001807f5065726d697373696f6e2044656e69656400000000000000000000000000000081525060200191505060405180910390fd5b6000600282815481101515610fd857fe5b9060005260206000200160009054906101000a900473ffffffffffffffffffffffffffffffffffffffff169050600160028381548110151561101657fe5b9060005260206000200160009054906101000a900473ffffffffffffffffffffffffffffffffffffffff1690806001815401808255809150509060018203906000526020600020016000909192909190916101000a81548173ffffffffffffffffffffffffffffffffffffffff021916908373ffffffffffffffffffffffffffffffffffffffff160217905550506004600081548092919060010191905055506002828154811015156110c557fe5b9060005260206000200160006101000a81549073ffffffffffffffffffffffffffffffffffffffff02191690558073ffffffffffffffffffffffffffffffffffffffff1663f25efa11306040518263ffffffff167c0100000000000000000000000000000000000000000000000000000000028152600401808273ffffffffffffffffffffffffffffffffffffffff1673ffffffffffffffffffffffffffffffffffffffff168152602001915050600060405180830381600087803b15801561118d57600080fd5b505af11580156111a1573d6000803e3d6000fd5b505050505050565b600560009054906101000a900473ffffffffffffffffffffffffffffffffffffffff1681565b6060600560009054906101000a900473ffffffffffffffffffffffffffffffffffffffff1673ffffffffffffffffffffffffffffffffffffffff163373ffffffffffffffffffffffffffffffffffffffff16141515611296576040517f08c379a00000000000000000000000000000000000000000000000000000000081526004018080602001828103825260118152602001807f5065726d697373696f6e2044656e69656400000000000000000000000000000081525060200191505060405180910390fd5b600180548060200260200160405190810160405280929190818152602001828054801561131857602002820191906000526020600020905b8160009054906101000a900473ffffffffffffffffffffffffffffffffffffffff1673ffffffffffffffffffffffffffffffffffffffff16815260200190600101908083116112ce575b5050505050905090565b60018181548110151561133157fe5b906000526020600020016000915054906101000a900473ffffffffffffffffffffffffffffffffffffffff1681565b600560009054906101000a900473ffffffffffffffffffffffffffffffffffffffff1673ffffffffffffffffffffffffffffffffffffffff163373ffffffffffffffffffffffffffffffffffffffff16141515611425576040517f08c379a00000000000000000000000000000000000000000000000000000000081526004018080602001828103825260118152602001807f5065726d697373696f6e2044656e69656400000000000000000000000000000081525060200191505060405180910390fd5b60028054905081111561143757611503565b60008190505b6002805490508110156114eb5760026001820181548110151561145c57fe5b9060005260206000200160009054906101000a900473ffffffffffffffffffffffffffffffffffffffff1660028281548110151561149657fe5b9060005260206000200160006101000a81548173ffffffffffffffffffffffffffffffffffffffff021916908373ffffffffffffffffffffffffffffffffffffffff160217905550808060010191505061143d565b50600280548091906001900361150191906115d9565b505b50565b6000600360008373ffffffffffffffffffffffffffffffffffffffff1673ffffffffffffffffffffffffffffffffffffffff16815260200190815260200160002060006101000a81548160ff02191690831515021790555060018190806001815401808255809150509060018203906000526020600020016000909192909190916101000a81548173ffffffffffffffffffffffffffffffffffffffff021916908373ffffffffffffffffffffffffffffffffffffffff1602179055505060046000815480929190600101919050555050565b815481835581811115611600578183600052602060002091820191016115ff9190611605565b5b505050565b61162791905b8082111561162357600081600090555060010161160b565b5090565b9056fea165627a7a723058200dcaabf258452ec45615df6deba0cc04d2fec05db3225a9f0c30ff6b006e9c490029",
  "source": "//pragma solidity ^0.4.22;\npragma solidity ^0.5.0;\n\ncontract ElectronicHealthSystem{\n\n  address[] public providers;\n\n  uint public providerCount;\n\n  mapping (address => address) public profiles;\n  mapping (address => bool) profileExists;\n\n  function registerAsPatient(string memory _fName, string memory _lName, string memory _dateOfBirth, string memory _addressResidence) public {\n    require(!profileExists[msg.sender],'Patient already exists');\n    address newPatient = address(new Patient(_fName, _lName, _dateOfBirth, _addressResidence, msg.sender));\n    profiles[msg.sender] = newPatient;\n    profileExists[msg.sender] = true;\n  }\n\n  function registerAsProvider() public {\n    require(!profileExists[msg.sender], 'Provider already exists');\n    address newProvider = address(new Provider(msg.sender));\n    providers.push(newProvider);\n    profiles[msg.sender] = newProvider;\n    profileExists[msg.sender] = true;\n    providerCount++;\n  }\n}\n\ncontract Provider {\n\n    mapping (address => bool) patients;\n\n    address[] public patientAddresses;\n\n    address[] public requests;\n\n    mapping (address=>bool) public sentRequests;\n\n    uint public numberOfPatients;\n\n    address public owner;\n\n    modifier ownerOnly{\n      require(msg.sender == owner,'Permission Denied');\n      _;\n    }\n\n    constructor(address _owner) public {\n      owner = _owner;\n    }\n\n    function addPatient(address _patientAddress) public ownerOnly {\n      require(!sentRequests[_patientAddress],'Patient already added');\n      Patient patient = Patient(_patientAddress);\n      patient._providerRequests(address(this));\n      sentRequests[_patientAddress] = true;\n    }\n\n    function acceptPatient(uint _index) public ownerOnly {\n      Patient patient = Patient(requests[_index]);\n      patientAddresses.push(requests[_index]);\n      //deleteRequest(_index);\n      numberOfPatients++;\n      delete requests[_index];\n      patient._clearRequest(address(this));\n    }\n\n    function pendingRequests() public ownerOnly view returns (address[] memory) {\n      return requests;\n    }\n\n    function deleteRequest(uint _index) public ownerOnly {\n        if (_index > requests.length) return;\n        for(uint i = _index ; i < requests.length; i++){\n            requests[i] = requests[i+1];\n        }\n        requests.length--;\n    }\n\n    function patientList() public ownerOnly view returns (address[] memory) {\n      return patientAddresses;\n    }\n\n    function _clearRequest(address _patientAddress) public {\n      sentRequests[_patientAddress] = false;\n      patientAddresses.push(_patientAddress);\n      numberOfPatients++;\n    }\n\n    //Allow providers to send a request\n    function _patientRequest(address _patientAddress) public {\n      requests.push(_patientAddress);\n    }\n\n    function uploadFiles(bytes memory _ipfsHash, address _patientAddress) public ownerOnly {\n        Patient patient = Patient(_patientAddress);\n        patient.uploadFiles(_ipfsHash);\n    }\n\n    function getFiles(uint _index, address _patientAddress) public ownerOnly view returns (bytes memory) {\n        Patient patient = Patient(_patientAddress);\n        bytes memory file = patient.getFiles(_index);\n        return file;\n    }\n}\n\ncontract Patient{\n\n    struct Identity {\n        string firstName;\n        string lastName;\n        string dateOfBirth;\n        string addressResidence;\n    }\n\n    Identity identity;\n\n    address public owner;\n\n    address[] public addedProviders;\n\n    mapping (address => bool) public addedProvidersAccess;\n\n    mapping (address => bool) public sentRequests;\n\n    address[] public requests;\n\n    bytes[] files;\n\n    uint public numberOfMedicalProviders;\n\n    // modifier ownerOnly(){\n    //     require(msg.sender == owner,'Access Denied');\n    //     _;\n    // }\n\n    modifier restricted(){\n        require(msg.sender == owner || addedProvidersAccess[msg.sender],'Not enough Persmission');\n        _;\n    }\n\n    constructor(string memory _fName, string memory _lName, string memory _dateOfBirth, string memory _addressResidence, address _owner) public {\n        identity.firstName = _fName;\n        identity.lastName = _lName;\n        identity.dateOfBirth = _dateOfBirth;\n        identity.addressResidence = _addressResidence;\n        owner = _owner;\n        numberOfMedicalProviders = 0;\n    }\n\n    function _clearRequest(address _providerAddress) public {\n      sentRequests[_providerAddress] = false;\n      addedProviders.push(_providerAddress);\n      addedProvidersAccess[_providerAddress] = true;\n\n    }\n\n    function _providerRequests(address _providerAddress) public {\n      requests.push(_providerAddress);\n    }\n\n    function getRequests() public view returns(address[] memory){\n      return requests;\n    }\n\n    function addProvider(address _providerAddress)  public {\n      require(!addedProvidersAccess[_providerAddress],'Permission Denied');\n      Provider provider = Provider(_providerAddress);\n      provider._patientRequest(address(this));\n      sentRequests[_providerAddress] = true;\n      numberOfMedicalProviders++;\n      addedProvidersAccess[_providerAddress] = true;\n    }\n\n    function acceptProvider(uint _index) public {\n      Provider provider = Provider(requests[_index]);\n      addedProviders.push(requests[_index]);\n      numberOfMedicalProviders++;\n      addedProvidersAccess[requests[_index]] = true;\n      provider._clearRequest(address(this));\n      delete requests[_index];\n    }\n\n    function deleteRequest(uint _index) public {\n        if (_index > requests.length) return;\n        for(uint i = _index ; i < requests.length; i++){\n            requests[i] = requests[i+1];\n        }\n        requests.length--;\n    }\n\n    function uploadFiles(bytes memory ipfsHash) public restricted {\n        files.push(ipfsHash);\n    }\n\n    function getFiles(uint _index) public restricted view returns (bytes memory) {\n        return files[_index];\n    }\n\n    function returnIdentity() public view returns (string memory) {\n        return identity.firstName;\n    }\n}\n",
  "sourcePath": "/home/castor/Desktop/ehr/contracts/Medical.sol",
  "compiler": {
    "name": "solc",
    "version": "0.5.0+commit.1d4f565a.Emscripten.clang"
  },
  "schemaVersion": "3.0.9",
  "updatedAt": "2019-07-17T09:06:44.427Z",
  "devdoc": {
    "methods": {}
  },
  "userdoc": {
    "methods": {}
  }
}