{
  "contractName": "Provider",
  "abi": [
    {
      "constant": true,
      "inputs": [
        {
          "name": "",
          "type": "address"
        }
      ],
      "name": "sentRequests",
      "outputs": [
        {
          "name": "",
          "type": "bool"
        }
      ],
      "payable": false,
      "stateMutability": "view",
      "type": "function",
      "signature": "0x4fc7daff"
    },
    {
      "constant": true,
      "inputs": [
        {
          "name": "",
          "type": "uint256"
        }
      ],
      "name": "addedPatients",
      "outputs": [
        {
          "name": "",
          "type": "address"
        }
      ],
      "payable": false,
      "stateMutability": "view",
      "type": "function",
      "signature": "0xf4c31f70"
    },
    {
      "inputs": [
        {
          "name": "_owner",
          "type": "address"
        }
      ],
      "payable": false,
      "stateMutability": "nonpayable",
      "type": "constructor",
      "signature": "constructor"
    },
    {
      "constant": false,
      "inputs": [
        {
          "name": "_patientAddress",
          "type": "address"
        }
      ],
      "name": "_addAddedPatients",
      "outputs": [],
      "payable": false,
      "stateMutability": "nonpayable",
      "type": "function",
      "signature": "0x65d33a14"
    },
    {
      "constant": false,
      "inputs": [
        {
          "name": "_patientAddress",
          "type": "address"
        }
      ],
      "name": "_patientRequests",
      "outputs": [],
      "payable": false,
      "stateMutability": "nonpayable",
      "type": "function",
      "signature": "0x52ae5590"
    },
    {
      "constant": true,
      "inputs": [],
      "name": "requestsForApproval",
      "outputs": [
        {
          "name": "",
          "type": "address[]"
        }
      ],
      "payable": false,
      "stateMutability": "view",
      "type": "function",
      "signature": "0x66a0da7b"
    },
    {
      "constant": false,
      "inputs": [
        {
          "name": "_index",
          "type": "uint256"
        }
      ],
      "name": "acceptPatient",
      "outputs": [],
      "payable": false,
      "stateMutability": "nonpayable",
      "type": "function",
      "signature": "0x89ace8e8"
    }
  ],
  "bytecode": "0x608060405234801561001057600080fd5b506040516020806106c98339810180604052602081101561003057600080fd5b505160038054600160a060020a031916600160a060020a03909216919091179055610669806100606000396000f3fe6080604052600436106100775763ffffffff7c01000000000000000000000000000000000000000000000000000000006000350416634fc7daff811461007c57806352ae5590146100c357806365d33a14146100f857806366a0da7b1461012b57806389ace8e814610190578063f4c31f70146101ba575b600080fd5b34801561008857600080fd5b506100af6004803603602081101561009f57600080fd5b5035600160a060020a0316610200565b604080519115158252519081900360200190f35b3480156100cf57600080fd5b506100f6600480360360208110156100e657600080fd5b5035600160a060020a0316610215565b005b34801561010457600080fd5b506100f66004803603602081101561011b57600080fd5b5035600160a060020a0316610273565b34801561013757600080fd5b506101406103c8565b60408051602080825283518183015283519192839290830191858101910280838360005b8381101561017c578181015183820152602001610164565b505050509050019250505060405180910390f35b34801561019c57600080fd5b506100f6600480360360208110156101b357600080fd5b503561047b565b3480156101c657600080fd5b506101e4600480360360208110156101dd57600080fd5b50356105f5565b60408051600160a060020a039092168252519081900360200190f35b60026020526000908152604090205460ff1681565b6001805480820182556000919091527fb10e2d527612073b26eecdfd717e6a320cf44b4afac2b0732d9fcbe2b7fa0cf601805473ffffffffffffffffffffffffffffffffffffffff1916600160a060020a0392909216919091179055565b600354600160a060020a031633146102c3576040805160e560020a62461bcd028152602060048201526011602482015260008051602061061e833981519152604482015290519081900360640190fd5b600160a060020a038116600090815260026020526040902054819060ff16151560011415610329576040805160e560020a62461bcd028152602060048201526011602482015260008051602061061e833981519152604482015290519081900360640190fd5b604080517f2c694c4b0000000000000000000000000000000000000000000000000000000081523060048201529051600160a060020a03831691632c694c4b91602480830192600092919082900301818387803b15801561038957600080fd5b505af115801561039d573d6000803e3d6000fd5b505050600160a060020a039092166000908152600260205260409020805460ff191660011790555050565b600354606090600160a060020a0316331461041b576040805160e560020a62461bcd028152602060048201526011602482015260008051602061061e833981519152604482015290519081900360640190fd5b600180548060200260200160405190810160405280929190818152602001828054801561047157602002820191906000526020600020905b8154600160a060020a03168152600190910190602001808311610453575b5050505050905090565b600354600160a060020a031633146104cb576040805160e560020a62461bcd028152602060048201526011602482015260008051602061061e833981519152604482015290519081900360640190fd5b60006001828154811015156104dc57fe5b600091825260208220015460018054600160a060020a039092169350908490811061050357fe5b60009182526020808320909101548354600181810186559484529190922001805473ffffffffffffffffffffffffffffffffffffffff1916600160a060020a0390921691909117905580548390811061055857fe5b60009182526020822001805473ffffffffffffffffffffffffffffffffffffffff19169055604080517f7ed93b880000000000000000000000000000000000000000000000000000000081523060048201529051600160a060020a03841692637ed93b88926024808201939182900301818387803b1580156105d957600080fd5b505af11580156105ed573d6000803e3d6000fd5b505050505050565b600080548290811061060357fe5b600091825260209091200154600160a060020a031690508156fe5065726d697373696f6e2044656e696564000000000000000000000000000000a165627a7a7230582001cc91074e8bf1f1e2be10a5ebf2946c01c133a61d04683bd4b7d624af253af30029",
  "source": "//pragma solidity ^0.4.22;\npragma solidity ^0.5.0;\n\ncontract ElectronicHealthSystem{\n\n  address owner;\n  address[] providers;\n  address[] patients;\n\n  mapping (address => address) public profileAddress;\n  mapping (address => bool) profileExists;\n\n  modifier ownerOnly {\n    require(msg.sender == owner, 'Not the owner');\n    _;\n  }\n\n  constructor() public {\n    owner = msg.sender;\n  }\n\n  function registerAsPatient() public {\n    require(!profileExists[msg.sender],'Patient already exists');\n    address newPatient = address(new Patient(msg.sender));\n    profileAddress[msg.sender] = newPatient;\n    profileExists[msg.sender] = true;\n  }\n\n  function registerAsProvider() public {\n    require(!profileExists[msg.sender], 'Provider already exists');\n    address newProvider = address(new Provider(msg.sender));\n    providers.push(newProvider);\n    profileAddress[msg.sender] = newProvider;\n    profileExists[msg.sender] = true;\n  }\n}\n\ncontract Provider {\n\n    // mapping (address => bool) patients;\n\n    // address[] public patientAddresses;\n    address[] public addedPatients;\n    address[] requests;\n\n    mapping (address=>bool) public sentRequests;\n\n    // uint public numberOfPatients;\n\n    address owner;\n\n    modifier ownerOnly{\n      require(msg.sender == owner,'Permission Denied');\n      _;\n    }\n\n    constructor(address _owner) public {\n      owner = _owner;\n    }\n\n    function _addAddedPatients(address _patientAddress) public ownerOnly {\n      Patient patient = Patient(_patientAddress);\n      require(sentRequests[_patientAddress]!=true, 'Permission Denied');\n      patient._providerRequests(address(this));\n      sentRequests[_patientAddress] = true;\n    }\n\n    function _patientRequests(address _patientAddress) public {\n      requests.push(_patientAddress);\n    }\n\n    function requestsForApproval() public ownerOnly view returns (address[] memory) {\n      return requests;\n    }\n\n    function acceptPatient(uint _index) public ownerOnly {\n      Patient patient = Patient(requests[_index]);\n      addedPatients.push(requests[_index]);\n      delete requests[_index];\n      patient._addAddedProviders(address(this));\n    }\n\n    // function pendingRequests() public ownerOnly view returns (address[] memory) {\n    //   return requests;\n    // }\n\n    // function deleteRequest(uint _index) public ownerOnly {\n    //     if (_index > requests.length) return;\n    //     for(uint i = _index ; i < requests.length; i++){\n    //         requests[i] = requests[i+1];\n    //     }\n    //     requests.length--;\n    // }\n\n    // function patientList() public ownerOnly view returns (address[] memory) {\n    //   return patientAddresses;\n    // }\n\n    // function _clearRequest(address _patientAddress) public {\n    //   sentRequests[_patientAddress] = false;\n    //   patientAddresses.push(_patientAddress);\n    //   numberOfPatients++;\n    // }\n\n    // //Allow providers to send a request\n    // function _patientRequest(address _patientAddress) public {\n    //   requests.push(_patientAddress);\n    // }\n\n    // function uploadFiles(bytes memory _ipfsHash, address _patientAddress) public ownerOnly {\n    //     Patient patient = Patient(_patientAddress);\n    //     patient.uploadFiles(_ipfsHash);\n    // }\n\n    // function getFiles(uint _index, address _patientAddress) public ownerOnly view returns (bytes memory) {\n    //     Patient patient = Patient(_patientAddress);\n    //     bytes memory file = patient.getFiles(_index);\n    //     return file;\n    // }\n}\n\ncontract Patient{\n\n    // struct Identity {\n    //     string firstName;\n    //     string lastName;\n    //     string dateOfBirth;\n    //     string addressResidence;\n    // }\n\n    // Identity identity;\n\n    // address public owner;\n\n    address[] public addedProviders;\n\n    // mapping (address => bool) public addedProvidersAccess;\n\n    mapping (address => bool) public sentRequests;\n\n    address[] public requests;\n\n    address owner;\n\n    bytes[] patientFiles;\n\n    modifier ownerOnly {\n      require(msg.sender == owner, 'Not the owner!');\n      _;\n    }\n\n    // uint public numberOfMedicalProviders;\n\n    // modifier ownerOnly(){\n    //     require(msg.sender == owner,'Access Denied');\n    //     _;\n    // }\n\n    // modifier restricted(){\n    //     require(msg.sender == owner || addedProvidersAccess[msg.sender],'Not enough Persmission');\n    //     _;\n    // }\n\n    constructor(address _owner) public {\n        owner = _owner;\n    }\n\n    function _addAddedProviders(address _providerAddress) public {\n      sentRequests[_providerAddress] = false;\n      addedProviders.push(_providerAddress);\n    }\n\n    // function _clearRequest(address _providerAddress) public {\n    //   sentRequests[_providerAddress] = false;\n    //   addedProviders.push(_providerAddress);\n    //   addedProvidersAccess[_providerAddress] = true;\n\n    // }\n\n    function _providerRequests(address _providerAddress) public {\n      requests.push(_providerAddress);\n    }\n\n    // function getRequests() public view returns(address[] memory){\n    //   return requests;\n    // }\n    function seeRequests() public view returns (address[] memory ) {\n      return requests;\n    }\n\n    function addProvider(address _providerAddress)  public ownerOnly{\n      // require(!addedProvidersAccess[_providerAddress],'Permission Denied');\n      Provider provider = Provider(_providerAddress);\n      require(sentRequests[_providerAddress]!=true, 'Permission Denied');\n      provider._patientRequests(address(this));\n      sentRequests[_providerAddress] = true;\n      // numberOfMedicalProviders++;\n      // addedProvidersAccess[_providerAddress] = true;\n      requests.push(_providerAddress);\n    }\n\n    function requestsForApproval() public ownerOnly view returns (address[] memory) {\n      return requests;\n    }\n\n    function acceptProvider(uint _index) public ownerOnly {\n      Provider provider = Provider(requests[_index]);\n      addedProviders.push(requests[_index]);\n      // numberOfMedicalProviders++;\n      // addedProvidersAccess[requests[_index]] = true;\n      // provider._clearRequest(address(this));\n      // delete requests[_index];\n      delete requests[_index];\n      provider._addAddedPatients(address(this));\n    }\n\n    function deleteRequest(uint _index) public {\n        if (_index > requests.length) return;\n        for(uint i = _index ; i < requests.length; i++){\n            requests[i] = requests[i+1];\n        }\n        requests.length--;\n    }\n\n    function uploadFiles(bytes memory _hash) public ownerOnly {\n        patientFiles.push(_hash);\n    }\n\n    function retrieveFile(bytes memory _hash) public view ownerOnly returns (bytes memory) {\n        return _hash;\n    }\n\n    // function returnIdentity() public view returns (string memory) {\n    //     return identity.firstName;\n    // }\n}\n",
  "sourcePath": "/home/castor/Desktop/ehr/contracts/Medical.sol",
  "compiler": {
    "name": "solc",
    "version": "0.5.0+commit.1d4f565a.Emscripten.clang"
  },
  "schemaVersion": "3.0.1",
  "updatedAt": "2019-07-28T11:16:07.030Z",
  "devdoc": {
    "methods": {}
  },
  "userdoc": {
    "methods": {}
  }
}